{
  "_format": "hh-sol-artifact-1",
  "contractName": "Crowdfunding",
  "sourceName": "contracts/Crowdfunding.sol",
  "abi": [
    {
      "inputs": [],
      "stateMutability": "payable",
      "type": "constructor"
    },
    {
      "anonymous": false,
      "inputs": [
        {
          "indexed": true,
          "internalType": "address",
          "name": "previousOwner",
          "type": "address"
        },
        {
          "indexed": true,
          "internalType": "address",
          "name": "newOwner",
          "type": "address"
        }
      ],
      "name": "OwnershipTransferred",
      "type": "event"
    },
    {
      "anonymous": false,
      "inputs": [
        {
          "indexed": false,
          "internalType": "uint256",
          "name": "projectID",
          "type": "uint256"
        },
        {
          "indexed": false,
          "internalType": "uint256",
          "name": "projectGoal",
          "type": "uint256"
        },
        {
          "indexed": false,
          "internalType": "uint256",
          "name": "balance",
          "type": "uint256"
        },
        {
          "indexed": false,
          "internalType": "string",
          "name": "title",
          "type": "string"
        },
        {
          "indexed": false,
          "internalType": "string",
          "name": "description",
          "type": "string"
        },
        {
          "indexed": false,
          "internalType": "address",
          "name": "owner",
          "type": "address"
        },
        {
          "indexed": false,
          "internalType": "bool",
          "name": "isComplete",
          "type": "bool"
        },
        {
          "indexed": false,
          "internalType": "bool",
          "name": "isClosed",
          "type": "bool"
        }
      ],
      "name": "ProjectCreated",
      "type": "event"
    },
    {
      "anonymous": false,
      "inputs": [
        {
          "indexed": false,
          "internalType": "uint256",
          "name": "projectID",
          "type": "uint256"
        },
        {
          "indexed": false,
          "internalType": "uint256",
          "name": "amount",
          "type": "uint256"
        },
        {
          "indexed": false,
          "internalType": "address",
          "name": "paidBy",
          "type": "address"
        }
      ],
      "name": "ProjectFunded",
      "type": "event"
    },
    {
      "anonymous": false,
      "inputs": [
        {
          "indexed": false,
          "internalType": "address",
          "name": "receiver",
          "type": "address"
        },
        {
          "indexed": false,
          "internalType": "uint256",
          "name": "amountTransferred",
          "type": "uint256"
        },
        {
          "indexed": false,
          "internalType": "uint256",
          "name": "userTokenBalance",
          "type": "uint256"
        }
      ],
      "name": "TokenTransferred",
      "type": "event"
    },
    {
      "inputs": [
        {
          "internalType": "uint256",
          "name": "projectID",
          "type": "uint256"
        }
      ],
      "name": "closeProjectAndTransferBalance",
      "outputs": [
        {
          "internalType": "bool",
          "name": "",
          "type": "bool"
        }
      ],
      "stateMutability": "nonpayable",
      "type": "function"
    },
    {
      "inputs": [
        {
          "internalType": "string",
          "name": "title",
          "type": "string"
        },
        {
          "internalType": "string",
          "name": "description",
          "type": "string"
        },
        {
          "internalType": "uint256",
          "name": "projectGoal",
          "type": "uint256"
        }
      ],
      "name": "createProject",
      "outputs": [],
      "stateMutability": "payable",
      "type": "function"
    },
    {
      "inputs": [],
      "name": "fetchAllProjects",
      "outputs": [
        {
          "components": [
            {
              "internalType": "uint256",
              "name": "projectID",
              "type": "uint256"
            },
            {
              "internalType": "uint256",
              "name": "projectGoal",
              "type": "uint256"
            },
            {
              "internalType": "uint256",
              "name": "balance",
              "type": "uint256"
            },
            {
              "internalType": "uint256",
              "name": "funders",
              "type": "uint256"
            },
            {
              "internalType": "string",
              "name": "title",
              "type": "string"
            },
            {
              "internalType": "string",
              "name": "description",
              "type": "string"
            },
            {
              "internalType": "address payable",
              "name": "owner",
              "type": "address"
            },
            {
              "internalType": "bool",
              "name": "isComplete",
              "type": "bool"
            },
            {
              "internalType": "bool",
              "name": "isClosed",
              "type": "bool"
            }
          ],
          "internalType": "struct Crowdfunding.Project[]",
          "name": "",
          "type": "tuple[]"
        }
      ],
      "stateMutability": "view",
      "type": "function"
    },
    {
      "inputs": [
        {
          "internalType": "uint256",
          "name": "projectId",
          "type": "uint256"
        }
      ],
      "name": "fetchProjectByID",
      "outputs": [
        {
          "components": [
            {
              "internalType": "uint256",
              "name": "projectID",
              "type": "uint256"
            },
            {
              "internalType": "uint256",
              "name": "projectGoal",
              "type": "uint256"
            },
            {
              "internalType": "uint256",
              "name": "balance",
              "type": "uint256"
            },
            {
              "internalType": "uint256",
              "name": "funders",
              "type": "uint256"
            },
            {
              "internalType": "string",
              "name": "title",
              "type": "string"
            },
            {
              "internalType": "string",
              "name": "description",
              "type": "string"
            },
            {
              "internalType": "address payable",
              "name": "owner",
              "type": "address"
            },
            {
              "internalType": "bool",
              "name": "isComplete",
              "type": "bool"
            },
            {
              "internalType": "bool",
              "name": "isClosed",
              "type": "bool"
            }
          ],
          "internalType": "struct Crowdfunding.Project",
          "name": "",
          "type": "tuple"
        }
      ],
      "stateMutability": "view",
      "type": "function"
    },
    {
      "inputs": [
        {
          "internalType": "uint256",
          "name": "projectID",
          "type": "uint256"
        }
      ],
      "name": "fundProject",
      "outputs": [
        {
          "internalType": "bool",
          "name": "",
          "type": "bool"
        }
      ],
      "stateMutability": "payable",
      "type": "function"
    },
    {
      "inputs": [],
      "name": "getBalance",
      "outputs": [
        {
          "internalType": "uint256",
          "name": "",
          "type": "uint256"
        }
      ],
      "stateMutability": "view",
      "type": "function"
    },
    {
      "inputs": [],
      "name": "getListingFee",
      "outputs": [
        {
          "internalType": "uint256",
          "name": "",
          "type": "uint256"
        }
      ],
      "stateMutability": "view",
      "type": "function"
    },
    {
      "inputs": [],
      "name": "getTokenContractAddress",
      "outputs": [
        {
          "internalType": "address",
          "name": "tokenContract",
          "type": "address"
        }
      ],
      "stateMutability": "view",
      "type": "function"
    },
    {
      "inputs": [
        {
          "internalType": "uint256",
          "name": "projectID",
          "type": "uint256"
        }
      ],
      "name": "markProjectComplete",
      "outputs": [
        {
          "internalType": "bool",
          "name": "",
          "type": "bool"
        }
      ],
      "stateMutability": "nonpayable",
      "type": "function"
    },
    {
      "inputs": [],
      "name": "owner",
      "outputs": [
        {
          "internalType": "address",
          "name": "",
          "type": "address"
        }
      ],
      "stateMutability": "view",
      "type": "function"
    },
    {
      "inputs": [],
      "name": "renounceOwnership",
      "outputs": [],
      "stateMutability": "nonpayable",
      "type": "function"
    },
    {
      "inputs": [
        {
          "internalType": "address",
          "name": "newOwner",
          "type": "address"
        }
      ],
      "name": "transferOwnership",
      "outputs": [],
      "stateMutability": "nonpayable",
      "type": "function"
    }
  ],
  "bytecode": "0x60806040526658d15e176280006005556200002f62000023620000a860201b60201c565b620000b060201b60201c565b60018081905550604051620000449062000174565b604051809103906000f08015801562000061573d6000803e3d6000fd5b50600460006101000a81548173ffffffffffffffffffffffffffffffffffffffff021916908373ffffffffffffffffffffffffffffffffffffffff16021790555062000182565b600033905090565b60008060009054906101000a900473ffffffffffffffffffffffffffffffffffffffff169050816000806101000a81548173ffffffffffffffffffffffffffffffffffffffff021916908373ffffffffffffffffffffffffffffffffffffffff1602179055508173ffffffffffffffffffffffffffffffffffffffff168173ffffffffffffffffffffffffffffffffffffffff167f8be0079c531659141344cd1fd0a4f28419497f9722a3daafe3b4186f6b6457e060405160405180910390a35050565b611fdf806200287083390190565b6126de80620001926000396000f3fe6080604052600436106100a75760003560e01c8063715018a611610064578063715018a6146101c85780638da5cb5b146101df578063b8fe6abe1461020a578063bba94ff814610235578063c010d42614610272578063f2fde38b1461029d576100a7565b806312065fe0146100ac57806322e45584146100d757806323c55448146101025780635445622c1461011e578063546d23cc1461015b5780636c563abe14610198575b600080fd5b3480156100b857600080fd5b506100c16102c6565b6040516100ce9190611fbc565b60405180910390f35b3480156100e357600080fd5b506100ec6102ce565b6040516100f99190611dc2565b60405180910390f35b61011c600480360381019061011791906118d4565b6102f8565b005b34801561012a57600080fd5b5061014560048036038101906101409190611953565b610543565b6040516101529190611e5f565b60405180910390f35b34801561016757600080fd5b50610182600480360381019061017d9190611953565b61078e565b60405161018f9190611f9a565b60405180910390f35b6101b260048036038101906101ad9190611953565b610994565b6040516101bf9190611e5f565b60405180910390f35b3480156101d457600080fd5b506101dd610ae5565b005b3480156101eb57600080fd5b506101f4610b6d565b6040516102019190611dc2565b60405180910390f35b34801561021657600080fd5b5061021f610b96565b60405161022c9190611fbc565b60405180910390f35b34801561024157600080fd5b5061025c60048036038101906102579190611953565b610ba0565b6040516102699190611e5f565b60405180910390f35b34801561027e57600080fd5b50610287610def565b6040516102949190611e3d565b60405180910390f35b3480156102a957600080fd5b506102c460048036038101906102bf9190611882565b6111b4565b005b600047905090565b6000600460009054906101000a900473ffffffffffffffffffffffffffffffffffffffff16905090565b600554341461033c576040517f08c379a000000000000000000000000000000000000000000000000000000000815260040161033390611e7a565b60405180910390fd5b61034660026112ac565b600061035260026112c2565b905080600660003373ffffffffffffffffffffffffffffffffffffffff1673ffffffffffffffffffffffffffffffffffffffff1681526020019081526020016000208190555060405180610120016040528082815260200183815260200160008152602001600081526020018581526020018481526020013373ffffffffffffffffffffffffffffffffffffffff168152602001600015158152602001600015158152506007600083815260200190815260200160002060008201518160000155602082015181600101556040820151816002015560608201518160030155608082015181600401908051906020019061044d9291906116d2565b5060a082015181600501908051906020019061046a9291906116d2565b5060c08201518160060160006101000a81548173ffffffffffffffffffffffffffffffffffffffff021916908373ffffffffffffffffffffffffffffffffffffffff16021790555060e08201518160060160146101000a81548160ff0219169083151502179055506101008201518160060160156101000a81548160ff0219169083151502179055509050507fe22df411ee42c0db265039da2dc79760d3b41e5a2e0587ee488b0fce87d15c4d8183600087873360008060405161053598979695949392919061200e565b60405180910390a150505050565b600061054d6112d0565b73ffffffffffffffffffffffffffffffffffffffff1661056b610b6d565b73ffffffffffffffffffffffffffffffffffffffff16146105c1576040517f08c379a00000000000000000000000000000000000000000000000000000000081526004016105b890611f1a565b60405180910390fd5b60026001541415610607576040517f08c379a00000000000000000000000000000000000000000000000000000000081526004016105fe90611f7a565b60405180910390fd5b6002600181905550600060076000848152602001908152602001600020905060004711610669576040517f08c379a000000000000000000000000000000000000000000000000000000000815260040161066090611efa565b60405180910390fd5b60008160020154116106b0576040517f08c379a00000000000000000000000000000000000000000000000000000000081526004016106a790611eba565b60405180910390fd5b8060060160159054906101000a900460ff161580156106de57508060060160149054906101000a900460ff16155b6106e757600080fd5b6000816002018190555060018160060160156101000a81548160ff0219169083151502179055508060060160009054906101000a900473ffffffffffffffffffffffffffffffffffffffff1673ffffffffffffffffffffffffffffffffffffffff166108fc82600201549081150290604051600060405180830381858888f1935050505015801561077c573d6000803e3d6000fd5b50600191505060018081905550919050565b610796611758565b6007600083815260200190815260200160002060405180610120016040529081600082015481526020016001820154815260200160028201548152602001600382015481526020016004820180546107ed906122c4565b80601f0160208091040260200160405190810160405280929190818152602001828054610819906122c4565b80156108665780601f1061083b57610100808354040283529160200191610866565b820191906000526020600020905b81548152906001019060200180831161084957829003601f168201915b5050505050815260200160058201805461087f906122c4565b80601f01602080910402602001604051908101604052809291908181526020018280546108ab906122c4565b80156108f85780601f106108cd576101008083540402835291602001916108f8565b820191906000526020600020905b8154815290600101906020018083116108db57829003601f168201915b505050505081526020016006820160009054906101000a900473ffffffffffffffffffffffffffffffffffffffff1673ffffffffffffffffffffffffffffffffffffffff1673ffffffffffffffffffffffffffffffffffffffff1681526020016006820160149054906101000a900460ff161515151581526020016006820160159054906101000a900460ff1615151515815250509050919050565b60008034116109d8576040517f08c379a00000000000000000000000000000000000000000000000000000000081526004016109cf90611f3a565b60405180910390fd5b6007600083815260200190815260200160002060060160159054906101000a900460ff16158015610a2a57506007600083815260200190815260200160002060060160149054906101000a900460ff16155b610a3357600080fd5b34600760008481526020019081526020016000206002016000828254610a599190612156565b925050819055506001600760008481526020019081526020016000206003016000828254610a879190612156565b92505081905550610aa033670de0b6b3a76400006112d8565b507f26aac1e3160af10ef601ed7c1de8d440bfc3c39184731c5bb124ee8464e9fb6d823433604051610ad493929190611fd7565b60405180910390a160019050919050565b610aed6112d0565b73ffffffffffffffffffffffffffffffffffffffff16610b0b610b6d565b73ffffffffffffffffffffffffffffffffffffffff1614610b61576040517f08c379a0000000000000000000000000000000000000000000000000000000008152600401610b5890611f1a565b60405180910390fd5b610b6b600061160e565b565b60008060009054906101000a900473ffffffffffffffffffffffffffffffffffffffff16905090565b6000600554905090565b600060026001541415610be8576040517f08c379a0000000000000000000000000000000000000000000000000000000008152600401610bdf90611f7a565b60405180910390fd5b6002600181905550610bf86112d0565b73ffffffffffffffffffffffffffffffffffffffff16610c16610b6d565b73ffffffffffffffffffffffffffffffffffffffff1614610c6c576040517f08c379a0000000000000000000000000000000000000000000000000000000008152600401610c6390611f1a565b60405180910390fd5b600060076000848152602001908152602001600020905060004711610cc6576040517f08c379a0000000000000000000000000000000000000000000000000000000008152600401610cbd90611efa565b60405180910390fd5b806002015481600101541015610d11576040517f08c379a0000000000000000000000000000000000000000000000000000000008152600401610d0890611f5a565b60405180910390fd5b8060060160159054906101000a900460ff16158015610d3f57508060060160149054906101000a900460ff16155b610d4857600080fd5b6000816002018190555060018160060160146101000a81548160ff0219169083151502179055508060060160009054906101000a900473ffffffffffffffffffffffffffffffffffffffff1673ffffffffffffffffffffffffffffffffffffffff166108fc82600201549081150290604051600060405180830381858888f19350505050158015610ddd573d6000803e3d6000fd5b50600191505060018081905550919050565b60606000610dfd60026112c2565b90506000610e0b60036112c2565b82610e1691906121ac565b90506000808267ffffffffffffffff811115610e5b577f4e487b7100000000000000000000000000000000000000000000000000000000600052604160045260246000fd5b604051908082528060200260200182016040528015610e9457816020015b610e81611758565b815260200190600190039081610e795790505b50905060005b848110156111a9576000151560076000600184610eb79190612156565b815260200190815260200160002060060160149054906101000a900460ff161515148015610f1857506000151560076000600184610ef59190612156565b815260200190815260200160002060060160159054906101000a900460ff161515145b1561119657600060076000600184610f309190612156565b81526020019081526020016000206000015490506000600760008381526020019081526020016000209050806040518061012001604052908160008201548152602001600182015481526020016002820154815260200160038201548152602001600482018054610fa0906122c4565b80601f0160208091040260200160405190810160405280929190818152602001828054610fcc906122c4565b80156110195780601f10610fee57610100808354040283529160200191611019565b820191906000526020600020905b815481529060010190602001808311610ffc57829003601f168201915b50505050508152602001600582018054611032906122c4565b80601f016020809104026020016040519081016040528092919081815260200182805461105e906122c4565b80156110ab5780601f10611080576101008083540402835291602001916110ab565b820191906000526020600020905b81548152906001019060200180831161108e57829003601f168201915b505050505081526020016006820160009054906101000a900473ffffffffffffffffffffffffffffffffffffffff1673ffffffffffffffffffffffffffffffffffffffff1673ffffffffffffffffffffffffffffffffffffffff1681526020016006820160149054906101000a900460ff161515151581526020016006820160159054906101000a900460ff161515151581525050848681518110611179577f4e487b7100000000000000000000000000000000000000000000000000000000600052603260045260246000fd5b60200260200101819052506001856111919190612156565b945050505b80806111a190612327565b915050610e9a565b508094505050505090565b6111bc6112d0565b73ffffffffffffffffffffffffffffffffffffffff166111da610b6d565b73ffffffffffffffffffffffffffffffffffffffff1614611230576040517f08c379a000000000000000000000000000000000000000000000000000000000815260040161122790611f1a565b60405180910390fd5b600073ffffffffffffffffffffffffffffffffffffffff168173ffffffffffffffffffffffffffffffffffffffff1614156112a0576040517f08c379a000000000000000000000000000000000000000000000000000000000815260040161129790611e9a565b60405180910390fd5b6112a98161160e565b50565b6001816000016000828254019250508190555050565b600081600001549050919050565b600033905090565b600060026001541415611320576040517f08c379a000000000000000000000000000000000000000000000000000000000815260040161131790611f7a565b60405180910390fd5b60026001819055506113306112d0565b73ffffffffffffffffffffffffffffffffffffffff1661134e610b6d565b73ffffffffffffffffffffffffffffffffffffffff16146113a4576040517f08c379a000000000000000000000000000000000000000000000000000000000815260040161139b90611f1a565b60405180910390fd5b814710156113e7576040517f08c379a00000000000000000000000000000000000000000000000000000000081526004016113de90611eda565b60405180910390fd5b600860008473ffffffffffffffffffffffffffffffffffffffff1673ffffffffffffffffffffffffffffffffffffffff1681526020019081526020016000205482600860008673ffffffffffffffffffffffffffffffffffffffff1673ffffffffffffffffffffffffffffffffffffffff168152602001908152602001600020546114729190612156565b101561147d57600080fd5b81600860008573ffffffffffffffffffffffffffffffffffffffff1673ffffffffffffffffffffffffffffffffffffffff16815260200190815260200160002060008282546114cc9190612156565b92505081905550600460009054906101000a900473ffffffffffffffffffffffffffffffffffffffff1673ffffffffffffffffffffffffffffffffffffffff1663a9059cbb84846040518363ffffffff1660e01b8152600401611530929190611ddd565b602060405180830381600087803b15801561154a57600080fd5b505af115801561155e573d6000803e3d6000fd5b505050506040513d601f19601f8201168201806040525081019061158291906118ab565b507f75bd899296c7a5c73f4993401b9a11685de43d02d4d70397f45cf1357ddc47348383600860008773ffffffffffffffffffffffffffffffffffffffff1673ffffffffffffffffffffffffffffffffffffffff168152602001908152602001600020546040516115f593929190611e06565b60405180910390a1600190506001808190555092915050565b60008060009054906101000a900473ffffffffffffffffffffffffffffffffffffffff169050816000806101000a81548173ffffffffffffffffffffffffffffffffffffffff021916908373ffffffffffffffffffffffffffffffffffffffff1602179055508173ffffffffffffffffffffffffffffffffffffffff168173ffffffffffffffffffffffffffffffffffffffff167f8be0079c531659141344cd1fd0a4f28419497f9722a3daafe3b4186f6b6457e060405160405180910390a35050565b8280546116de906122c4565b90600052602060002090601f0160209004810192826117005760008555611747565b82601f1061171957805160ff1916838001178555611747565b82800160010185558215611747579182015b8281111561174657825182559160200191906001019061172b565b5b50905061175491906117be565b5090565b604051806101200160405280600081526020016000815260200160008152602001600081526020016060815260200160608152602001600073ffffffffffffffffffffffffffffffffffffffff1681526020016000151581526020016000151581525090565b5b808211156117d75760008160009055506001016117bf565b5090565b60006117ee6117e9846120bf565b61209a565b90508281526020810184848401111561180657600080fd5b611811848285612282565b509392505050565b60008135905061182881612663565b92915050565b60008151905061183d8161267a565b92915050565b600082601f83011261185457600080fd5b81356118648482602086016117db565b91505092915050565b60008135905061187c81612691565b92915050565b60006020828403121561189457600080fd5b60006118a284828501611819565b91505092915050565b6000602082840312156118bd57600080fd5b60006118cb8482850161182e565b91505092915050565b6000806000606084860312156118e957600080fd5b600084013567ffffffffffffffff81111561190357600080fd5b61190f86828701611843565b935050602084013567ffffffffffffffff81111561192c57600080fd5b61193886828701611843565b92505060406119498682870161186d565b9150509250925092565b60006020828403121561196557600080fd5b60006119738482850161186d565b91505092915050565b60006119888383611c0c565b905092915050565b6119998161223a565b82525050565b6119a8816121f2565b82525050565b6119b7816121e0565b82525050565b60006119c882612100565b6119d28185612123565b9350836020820285016119e4856120f0565b8060005b85811015611a205784840389528151611a01858261197c565b9450611a0c83612116565b925060208a019950506001810190506119e8565b50829750879550505050505092915050565b611a3b81612204565b82525050565b611a4a81612204565b82525050565b611a598161224c565b82525050565b6000611a6a8261210b565b611a748185612134565b9350611a84818560208601612291565b611a8d816123fd565b840191505092915050565b6000611aa38261210b565b611aad8185612145565b9350611abd818560208601612291565b611ac6816123fd565b840191505092915050565b6000611ade602883612145565b9150611ae98261240e565b604082019050919050565b6000611b01602683612145565b9150611b0c8261245d565b604082019050919050565b6000611b24602283612145565b9150611b2f826124ac565b604082019050919050565b6000611b47602383612145565b9150611b52826124fb565b604082019050919050565b6000611b6a601e83612145565b9150611b758261254a565b602082019050919050565b6000611b8d602083612145565b9150611b9882612573565b602082019050919050565b6000611bb0602983612145565b9150611bbb8261259c565b604082019050919050565b6000611bd3602983612145565b9150611bde826125eb565b604082019050919050565b6000611bf6601f83612145565b9150611c018261263a565b602082019050919050565b600061012083016000830151611c256000860182611da4565b506020830151611c386020860182611da4565b506040830151611c4b6040860182611da4565b506060830151611c5e6060860182611da4565b5060808301518482036080860152611c768282611a5f565b91505060a083015184820360a0860152611c908282611a5f565b91505060c0830151611ca560c086018261199f565b5060e0830151611cb860e0860182611a32565b50610100830151611ccd610100860182611a32565b508091505092915050565b600061012083016000830151611cf16000860182611da4565b506020830151611d046020860182611da4565b506040830151611d176040860182611da4565b506060830151611d2a6060860182611da4565b5060808301518482036080860152611d428282611a5f565b91505060a083015184820360a0860152611d5c8282611a5f565b91505060c0830151611d7160c086018261199f565b5060e0830151611d8460e0860182611a32565b50610100830151611d99610100860182611a32565b508091505092915050565b611dad81612230565b82525050565b611dbc81612230565b82525050565b6000602082019050611dd760008301846119ae565b92915050565b6000604082019050611df260008301856119ae565b611dff6020830184611db3565b9392505050565b6000606082019050611e1b60008301866119ae565b611e286020830185611db3565b611e356040830184611db3565b949350505050565b60006020820190508181036000830152611e5781846119bd565b905092915050565b6000602082019050611e746000830184611a41565b92915050565b60006020820190508181036000830152611e9381611ad1565b9050919050565b60006020820190508181036000830152611eb381611af4565b9050919050565b60006020820190508181036000830152611ed381611b17565b9050919050565b60006020820190508181036000830152611ef381611b3a565b9050919050565b60006020820190508181036000830152611f1381611b5d565b9050919050565b60006020820190508181036000830152611f3381611b80565b9050919050565b60006020820190508181036000830152611f5381611ba3565b9050919050565b60006020820190508181036000830152611f7381611bc6565b9050919050565b60006020820190508181036000830152611f9381611be9565b9050919050565b60006020820190508181036000830152611fb48184611cd8565b905092915050565b6000602082019050611fd16000830184611db3565b92915050565b6000606082019050611fec6000830186611db3565b611ff96020830185611db3565b61200660408301846119ae565b949350505050565b600061010082019050612024600083018b611db3565b612031602083018a611db3565b61203e6040830189611a50565b81810360608301526120508188611a98565b905081810360808301526120648187611a98565b905061207360a0830186611990565b61208060c0830185611a41565b61208d60e0830184611a41565b9998505050505050505050565b60006120a46120b5565b90506120b082826122f6565b919050565b6000604051905090565b600067ffffffffffffffff8211156120da576120d96123ce565b5b6120e3826123fd565b9050602081019050919050565b6000819050602082019050919050565b600081519050919050565b600081519050919050565b6000602082019050919050565b600082825260208201905092915050565b600082825260208201905092915050565b600082825260208201905092915050565b600061216182612230565b915061216c83612230565b9250827fffffffffffffffffffffffffffffffffffffffffffffffffffffffffffffffff038211156121a1576121a0612370565b5b828201905092915050565b60006121b782612230565b91506121c283612230565b9250828210156121d5576121d4612370565b5b828203905092915050565b60006121eb82612210565b9050919050565b60006121fd82612210565b9050919050565b60008115159050919050565b600073ffffffffffffffffffffffffffffffffffffffff82169050919050565b6000819050919050565b60006122458261225e565b9050919050565b600061225782612230565b9050919050565b600061226982612270565b9050919050565b600061227b82612210565b9050919050565b82818337600083830152505050565b60005b838110156122af578082015181840152602081019050612294565b838111156122be576000848401525b50505050565b600060028204905060018216806122dc57607f821691505b602082108114156122f0576122ef61239f565b5b50919050565b6122ff826123fd565b810181811067ffffffffffffffff8211171561231e5761231d6123ce565b5b80604052505050565b600061233282612230565b91507fffffffffffffffffffffffffffffffffffffffffffffffffffffffffffffffff82141561236557612364612370565b5b600182019050919050565b7f4e487b7100000000000000000000000000000000000000000000000000000000600052601160045260246000fd5b7f4e487b7100000000000000000000000000000000000000000000000000000000600052602260045260246000fd5b7f4e487b7100000000000000000000000000000000000000000000000000000000600052604160045260246000fd5b6000601f19601f8301169050919050565b7f416d6f756e742070726f7669646564206e6f7420657175616c20746f206c697360008201527f74696e6720666565000000000000000000000000000000000000000000000000602082015250565b7f4f776e61626c653a206e6577206f776e657220697320746865207a65726f206160008201527f6464726573730000000000000000000000000000000000000000000000000000602082015250565b7f4e6f7420656e6f7567682066756e647320666f722074686973207472616e736660008201527f6572000000000000000000000000000000000000000000000000000000000000602082015250565b7f4e6f7420656e6f75676820746f6b656e7320666f722074686973207472616e7360008201527f6665720000000000000000000000000000000000000000000000000000000000602082015250565b7f496e73756666696369656e742066756e647320696e20636f6e74726163740000600082015250565b7f4f776e61626c653a2063616c6c6572206973206e6f7420746865206f776e6572600082015250565b7f596f75206d7573742066756e6420616e20616d6f756e7420677265617465722060008201527f7468616e207a65726f0000000000000000000000000000000000000000000000602082015250565b7f50726f6a6563742066756e64696e6720676f616c206861736e2774206265656e60008201527f20726561636865642e0000000000000000000000000000000000000000000000602082015250565b7f5265656e7472616e637947756172643a207265656e7472616e742063616c6c00600082015250565b61266c816121e0565b811461267757600080fd5b50565b61268381612204565b811461268e57600080fd5b50565b61269a81612230565b81146126a557600080fd5b5056fea26469706673582212208ff874b97cf1f3e45b1979015cb5d032c1879a89d30f9334657e79632e8cdd2d64736f6c6343000804003360806040523480156200001157600080fd5b506040518060400160405280600b81526020017f43524f574420544f4b454e0000000000000000000000000000000000000000008152506040518060400160405280600381526020017f43544b000000000000000000000000000000000000000000000000000000000081525081600390805190602001906200009692919062000344565b508060049080519060200190620000af92919062000344565b505050620000d2620000c6620000f360201b60201c565b620000fb60201b60201c565b620000ed33683635c9adc5dea00000620001c160201b60201c565b620005a0565b600033905090565b6000600560009054906101000a900473ffffffffffffffffffffffffffffffffffffffff16905081600560006101000a81548173ffffffffffffffffffffffffffffffffffffffff021916908373ffffffffffffffffffffffffffffffffffffffff1602179055508173ffffffffffffffffffffffffffffffffffffffff168173ffffffffffffffffffffffffffffffffffffffff167f8be0079c531659141344cd1fd0a4f28419497f9722a3daafe3b4186f6b6457e060405160405180910390a35050565b600073ffffffffffffffffffffffffffffffffffffffff168273ffffffffffffffffffffffffffffffffffffffff16141562000234576040517f08c379a00000000000000000000000000000000000000000000000000000000081526004016200022b906200042c565b60405180910390fd5b62000248600083836200033a60201b60201c565b80600260008282546200025c91906200047c565b92505081905550806000808473ffffffffffffffffffffffffffffffffffffffff1673ffffffffffffffffffffffffffffffffffffffff1681526020019081526020016000206000828254620002b391906200047c565b925050819055508173ffffffffffffffffffffffffffffffffffffffff16600073ffffffffffffffffffffffffffffffffffffffff167fddf252ad1be2c89b69c2b068fc378daa952ba7f163c4a11628f55a4df523b3ef836040516200031a91906200044e565b60405180910390a362000336600083836200033f60201b60201c565b5050565b505050565b505050565b8280546200035290620004e3565b90600052602060002090601f016020900481019282620003765760008555620003c2565b82601f106200039157805160ff1916838001178555620003c2565b82800160010185558215620003c2579182015b82811115620003c1578251825591602001919060010190620003a4565b5b509050620003d19190620003d5565b5090565b5b80821115620003f0576000816000905550600101620003d6565b5090565b600062000403601f836200046b565b9150620004108262000577565b602082019050919050565b6200042681620004d9565b82525050565b600060208201905081810360008301526200044781620003f4565b9050919050565b60006020820190506200046560008301846200041b565b92915050565b600082825260208201905092915050565b60006200048982620004d9565b91506200049683620004d9565b9250827fffffffffffffffffffffffffffffffffffffffffffffffffffffffffffffffff03821115620004ce57620004cd62000519565b5b828201905092915050565b6000819050919050565b60006002820490506001821680620004fc57607f821691505b6020821081141562000513576200051262000548565b5b50919050565b7f4e487b7100000000000000000000000000000000000000000000000000000000600052601160045260246000fd5b7f4e487b7100000000000000000000000000000000000000000000000000000000600052602260045260246000fd5b7f45524332303a206d696e7420746f20746865207a65726f206164647265737300600082015250565b611a2f80620005b06000396000f3fe608060405234801561001057600080fd5b50600436106100f55760003560e01c806370a0823111610097578063a457c2d711610066578063a457c2d714610276578063a9059cbb146102a6578063dd62ed3e146102d6578063f2fde38b14610306576100f5565b806370a0823114610200578063715018a6146102305780638da5cb5b1461023a57806395d89b4114610258576100f5565b806323b872dd116100d357806323b872dd14610166578063313ce5671461019657806339509351146101b4578063449a52f8146101e4576100f5565b806306fdde03146100fa578063095ea7b31461011857806318160ddd14610148575b600080fd5b610102610322565b60405161010f91906113ce565b60405180910390f35b610132600480360381019061012d9190611189565b6103b4565b60405161013f91906113b3565b60405180910390f35b6101506103d2565b60405161015d9190611530565b60405180910390f35b610180600480360381019061017b919061113a565b6103dc565b60405161018d91906113b3565b60405180910390f35b61019e6104d4565b6040516101ab919061154b565b60405180910390f35b6101ce60048036038101906101c99190611189565b6104dd565b6040516101db91906113b3565b60405180910390f35b6101fe60048036038101906101f99190611189565b610589565b005b61021a600480360381019061021591906110d5565b610613565b6040516102279190611530565b60405180910390f35b61023861065b565b005b6102426106e3565b60405161024f9190611398565b60405180910390f35b61026061070d565b60405161026d91906113ce565b60405180910390f35b610290600480360381019061028b9190611189565b61079f565b60405161029d91906113b3565b60405180910390f35b6102c060048036038101906102bb9190611189565b61088a565b6040516102cd91906113b3565b60405180910390f35b6102f060048036038101906102eb91906110fe565b6108a8565b6040516102fd9190611530565b60405180910390f35b610320600480360381019061031b91906110d5565b61092f565b005b60606003805461033190611660565b80601f016020809104026020016040519081016040528092919081815260200182805461035d90611660565b80156103aa5780601f1061037f576101008083540402835291602001916103aa565b820191906000526020600020905b81548152906001019060200180831161038d57829003601f168201915b5050505050905090565b60006103c86103c1610a27565b8484610a2f565b6001905092915050565b6000600254905090565b60006103e9848484610bfa565b6000600160008673ffffffffffffffffffffffffffffffffffffffff1673ffffffffffffffffffffffffffffffffffffffff1681526020019081526020016000206000610434610a27565b73ffffffffffffffffffffffffffffffffffffffff1673ffffffffffffffffffffffffffffffffffffffff168152602001908152602001600020549050828110156104b4576040517f08c379a00000000000000000000000000000000000000000000000000000000081526004016104ab90611470565b60405180910390fd5b6104c8856104c0610a27565b858403610a2f565b60019150509392505050565b60006012905090565b600061057f6104ea610a27565b8484600160006104f8610a27565b73ffffffffffffffffffffffffffffffffffffffff1673ffffffffffffffffffffffffffffffffffffffff16815260200190815260200160002060008873ffffffffffffffffffffffffffffffffffffffff1673ffffffffffffffffffffffffffffffffffffffff1681526020019081526020016000205461057a9190611582565b610a2f565b6001905092915050565b610591610a27565b73ffffffffffffffffffffffffffffffffffffffff166105af6106e3565b73ffffffffffffffffffffffffffffffffffffffff1614610605576040517f08c379a00000000000000000000000000000000000000000000000000000000081526004016105fc90611490565b60405180910390fd5b61060f8282610e7b565b5050565b60008060008373ffffffffffffffffffffffffffffffffffffffff1673ffffffffffffffffffffffffffffffffffffffff168152602001908152602001600020549050919050565b610663610a27565b73ffffffffffffffffffffffffffffffffffffffff166106816106e3565b73ffffffffffffffffffffffffffffffffffffffff16146106d7576040517f08c379a00000000000000000000000000000000000000000000000000000000081526004016106ce90611490565b60405180910390fd5b6106e16000610fdb565b565b6000600560009054906101000a900473ffffffffffffffffffffffffffffffffffffffff16905090565b60606004805461071c90611660565b80601f016020809104026020016040519081016040528092919081815260200182805461074890611660565b80156107955780601f1061076a57610100808354040283529160200191610795565b820191906000526020600020905b81548152906001019060200180831161077857829003601f168201915b5050505050905090565b600080600160006107ae610a27565b73ffffffffffffffffffffffffffffffffffffffff1673ffffffffffffffffffffffffffffffffffffffff16815260200190815260200160002060008573ffffffffffffffffffffffffffffffffffffffff1673ffffffffffffffffffffffffffffffffffffffff1681526020019081526020016000205490508281101561086b576040517f08c379a0000000000000000000000000000000000000000000000000000000008152600401610862906114f0565b60405180910390fd5b61087f610876610a27565b85858403610a2f565b600191505092915050565b600061089e610897610a27565b8484610bfa565b6001905092915050565b6000600160008473ffffffffffffffffffffffffffffffffffffffff1673ffffffffffffffffffffffffffffffffffffffff16815260200190815260200160002060008373ffffffffffffffffffffffffffffffffffffffff1673ffffffffffffffffffffffffffffffffffffffff16815260200190815260200160002054905092915050565b610937610a27565b73ffffffffffffffffffffffffffffffffffffffff166109556106e3565b73ffffffffffffffffffffffffffffffffffffffff16146109ab576040517f08c379a00000000000000000000000000000000000000000000000000000000081526004016109a290611490565b60405180910390fd5b600073ffffffffffffffffffffffffffffffffffffffff168173ffffffffffffffffffffffffffffffffffffffff161415610a1b576040517f08c379a0000000000000000000000000000000000000000000000000000000008152600401610a1290611410565b60405180910390fd5b610a2481610fdb565b50565b600033905090565b600073ffffffffffffffffffffffffffffffffffffffff168373ffffffffffffffffffffffffffffffffffffffff161415610a9f576040517f08c379a0000000000000000000000000000000000000000000000000000000008152600401610a96906114d0565b60405180910390fd5b600073ffffffffffffffffffffffffffffffffffffffff168273ffffffffffffffffffffffffffffffffffffffff161415610b0f576040517f08c379a0000000000000000000000000000000000000000000000000000000008152600401610b0690611430565b60405180910390fd5b80600160008573ffffffffffffffffffffffffffffffffffffffff1673ffffffffffffffffffffffffffffffffffffffff16815260200190815260200160002060008473ffffffffffffffffffffffffffffffffffffffff1673ffffffffffffffffffffffffffffffffffffffff168152602001908152602001600020819055508173ffffffffffffffffffffffffffffffffffffffff168373ffffffffffffffffffffffffffffffffffffffff167f8c5be1e5ebec7d5bd14f71427d1e84f3dd0314c0f7b2291e5b200ac8c7c3b92583604051610bed9190611530565b60405180910390a3505050565b600073ffffffffffffffffffffffffffffffffffffffff168373ffffffffffffffffffffffffffffffffffffffff161415610c6a576040517f08c379a0000000000000000000000000000000000000000000000000000000008152600401610c61906114b0565b60405180910390fd5b600073ffffffffffffffffffffffffffffffffffffffff168273ffffffffffffffffffffffffffffffffffffffff161415610cda576040517f08c379a0000000000000000000000000000000000000000000000000000000008152600401610cd1906113f0565b60405180910390fd5b610ce58383836110a1565b60008060008573ffffffffffffffffffffffffffffffffffffffff1673ffffffffffffffffffffffffffffffffffffffff16815260200190815260200160002054905081811015610d6b576040517f08c379a0000000000000000000000000000000000000000000000000000000008152600401610d6290611450565b60405180910390fd5b8181036000808673ffffffffffffffffffffffffffffffffffffffff1673ffffffffffffffffffffffffffffffffffffffff16815260200190815260200160002081905550816000808573ffffffffffffffffffffffffffffffffffffffff1673ffffffffffffffffffffffffffffffffffffffff1681526020019081526020016000206000828254610dfe9190611582565b925050819055508273ffffffffffffffffffffffffffffffffffffffff168473ffffffffffffffffffffffffffffffffffffffff167fddf252ad1be2c89b69c2b068fc378daa952ba7f163c4a11628f55a4df523b3ef84604051610e629190611530565b60405180910390a3610e758484846110a6565b50505050565b600073ffffffffffffffffffffffffffffffffffffffff168273ffffffffffffffffffffffffffffffffffffffff161415610eeb576040517f08c379a0000000000000000000000000000000000000000000000000000000008152600401610ee290611510565b60405180910390fd5b610ef7600083836110a1565b8060026000828254610f099190611582565b92505081905550806000808473ffffffffffffffffffffffffffffffffffffffff1673ffffffffffffffffffffffffffffffffffffffff1681526020019081526020016000206000828254610f5e9190611582565b925050819055508173ffffffffffffffffffffffffffffffffffffffff16600073ffffffffffffffffffffffffffffffffffffffff167fddf252ad1be2c89b69c2b068fc378daa952ba7f163c4a11628f55a4df523b3ef83604051610fc39190611530565b60405180910390a3610fd7600083836110a6565b5050565b6000600560009054906101000a900473ffffffffffffffffffffffffffffffffffffffff16905081600560006101000a81548173ffffffffffffffffffffffffffffffffffffffff021916908373ffffffffffffffffffffffffffffffffffffffff1602179055508173ffffffffffffffffffffffffffffffffffffffff168173ffffffffffffffffffffffffffffffffffffffff167f8be0079c531659141344cd1fd0a4f28419497f9722a3daafe3b4186f6b6457e060405160405180910390a35050565b505050565b505050565b6000813590506110ba816119cb565b92915050565b6000813590506110cf816119e2565b92915050565b6000602082840312156110e757600080fd5b60006110f5848285016110ab565b91505092915050565b6000806040838503121561111157600080fd5b600061111f858286016110ab565b9250506020611130858286016110ab565b9150509250929050565b60008060006060848603121561114f57600080fd5b600061115d868287016110ab565b935050602061116e868287016110ab565b925050604061117f868287016110c0565b9150509250925092565b6000806040838503121561119c57600080fd5b60006111aa858286016110ab565b92505060206111bb858286016110c0565b9150509250929050565b6111ce816115d8565b82525050565b6111dd816115ea565b82525050565b60006111ee82611566565b6111f88185611571565b935061120881856020860161162d565b611211816116f0565b840191505092915050565b6000611229602383611571565b915061123482611701565b604082019050919050565b600061124c602683611571565b915061125782611750565b604082019050919050565b600061126f602283611571565b915061127a8261179f565b604082019050919050565b6000611292602683611571565b915061129d826117ee565b604082019050919050565b60006112b5602883611571565b91506112c08261183d565b604082019050919050565b60006112d8602083611571565b91506112e38261188c565b602082019050919050565b60006112fb602583611571565b9150611306826118b5565b604082019050919050565b600061131e602483611571565b915061132982611904565b604082019050919050565b6000611341602583611571565b915061134c82611953565b604082019050919050565b6000611364601f83611571565b915061136f826119a2565b602082019050919050565b61138381611616565b82525050565b61139281611620565b82525050565b60006020820190506113ad60008301846111c5565b92915050565b60006020820190506113c860008301846111d4565b92915050565b600060208201905081810360008301526113e881846111e3565b905092915050565b600060208201905081810360008301526114098161121c565b9050919050565b600060208201905081810360008301526114298161123f565b9050919050565b6000602082019050818103600083015261144981611262565b9050919050565b6000602082019050818103600083015261146981611285565b9050919050565b60006020820190508181036000830152611489816112a8565b9050919050565b600060208201905081810360008301526114a9816112cb565b9050919050565b600060208201905081810360008301526114c9816112ee565b9050919050565b600060208201905081810360008301526114e981611311565b9050919050565b6000602082019050818103600083015261150981611334565b9050919050565b6000602082019050818103600083015261152981611357565b9050919050565b6000602082019050611545600083018461137a565b92915050565b60006020820190506115606000830184611389565b92915050565b600081519050919050565b600082825260208201905092915050565b600061158d82611616565b915061159883611616565b9250827fffffffffffffffffffffffffffffffffffffffffffffffffffffffffffffffff038211156115cd576115cc611692565b5b828201905092915050565b60006115e3826115f6565b9050919050565b60008115159050919050565b600073ffffffffffffffffffffffffffffffffffffffff82169050919050565b6000819050919050565b600060ff82169050919050565b60005b8381101561164b578082015181840152602081019050611630565b8381111561165a576000848401525b50505050565b6000600282049050600182168061167857607f821691505b6020821081141561168c5761168b6116c1565b5b50919050565b7f4e487b7100000000000000000000000000000000000000000000000000000000600052601160045260246000fd5b7f4e487b7100000000000000000000000000000000000000000000000000000000600052602260045260246000fd5b6000601f19601f8301169050919050565b7f45524332303a207472616e7366657220746f20746865207a65726f206164647260008201527f6573730000000000000000000000000000000000000000000000000000000000602082015250565b7f4f776e61626c653a206e6577206f776e657220697320746865207a65726f206160008201527f6464726573730000000000000000000000000000000000000000000000000000602082015250565b7f45524332303a20617070726f766520746f20746865207a65726f20616464726560008201527f7373000000000000000000000000000000000000000000000000000000000000602082015250565b7f45524332303a207472616e7366657220616d6f756e742065786365656473206260008201527f616c616e63650000000000000000000000000000000000000000000000000000602082015250565b7f45524332303a207472616e7366657220616d6f756e742065786365656473206160008201527f6c6c6f77616e6365000000000000000000000000000000000000000000000000602082015250565b7f4f776e61626c653a2063616c6c6572206973206e6f7420746865206f776e6572600082015250565b7f45524332303a207472616e736665722066726f6d20746865207a65726f20616460008201527f6472657373000000000000000000000000000000000000000000000000000000602082015250565b7f45524332303a20617070726f76652066726f6d20746865207a65726f2061646460008201527f7265737300000000000000000000000000000000000000000000000000000000602082015250565b7f45524332303a2064656372656173656420616c6c6f77616e63652062656c6f7760008201527f207a65726f000000000000000000000000000000000000000000000000000000602082015250565b7f45524332303a206d696e7420746f20746865207a65726f206164647265737300600082015250565b6119d4816115d8565b81146119df57600080fd5b50565b6119eb81611616565b81146119f657600080fd5b5056fea2646970667358221220e0c0ee96c3fd3a6f9885b03f1d7093b5c6080b84a519b8c6ca328493b9f8489464736f6c63430008040033",
  "linkReferences": {},
  "deployedLinkReferences": {}
}