{
  "_format": "hh-sol-artifact-1",
  "contractName": "Crowdfunding",
  "sourceName": "contracts/Crowdfunding.sol",
  "abi": [
    {
      "inputs": [],
      "stateMutability": "payable",
      "type": "constructor"
    },
    {
      "anonymous": false,
      "inputs": [
        {
          "indexed": true,
          "internalType": "address",
          "name": "previousOwner",
          "type": "address"
        },
        {
          "indexed": true,
          "internalType": "address",
          "name": "newOwner",
          "type": "address"
        }
      ],
      "name": "OwnershipTransferred",
      "type": "event"
    },
    {
      "anonymous": false,
      "inputs": [
        {
          "indexed": false,
          "internalType": "uint256",
          "name": "projectID",
          "type": "uint256"
        },
        {
          "indexed": false,
          "internalType": "uint256",
          "name": "projectGoal",
          "type": "uint256"
        },
        {
          "indexed": false,
          "internalType": "uint256",
          "name": "balance",
          "type": "uint256"
        },
        {
          "indexed": false,
          "internalType": "string",
          "name": "title",
          "type": "string"
        },
        {
          "indexed": false,
          "internalType": "string",
          "name": "description",
          "type": "string"
        },
        {
          "indexed": false,
          "internalType": "address",
          "name": "owner",
          "type": "address"
        },
        {
          "indexed": false,
          "internalType": "bool",
          "name": "isComplete",
          "type": "bool"
        },
        {
          "indexed": false,
          "internalType": "bool",
          "name": "isClosed",
          "type": "bool"
        }
      ],
      "name": "ProjectCreated",
      "type": "event"
    },
    {
      "anonymous": false,
      "inputs": [
        {
          "indexed": false,
          "internalType": "uint256",
          "name": "projectID",
          "type": "uint256"
        },
        {
          "indexed": false,
          "internalType": "uint256",
          "name": "amount",
          "type": "uint256"
        },
        {
          "indexed": false,
          "internalType": "address",
          "name": "paidBy",
          "type": "address"
        }
      ],
      "name": "ProjectFunded",
      "type": "event"
    },
    {
      "anonymous": false,
      "inputs": [
        {
          "indexed": false,
          "internalType": "address",
          "name": "receiver",
          "type": "address"
        },
        {
          "indexed": false,
          "internalType": "uint256",
          "name": "amountTransferred",
          "type": "uint256"
        },
        {
          "indexed": false,
          "internalType": "uint256",
          "name": "userTokenBalance",
          "type": "uint256"
        }
      ],
      "name": "TokenTransferred",
      "type": "event"
    },
    {
      "inputs": [
        {
          "internalType": "uint256",
          "name": "projectID",
          "type": "uint256"
        }
      ],
      "name": "closeProjectAndTransferBalance",
      "outputs": [
        {
          "internalType": "bool",
          "name": "",
          "type": "bool"
        }
      ],
      "stateMutability": "nonpayable",
      "type": "function"
    },
    {
      "inputs": [
        {
          "internalType": "string",
          "name": "title",
          "type": "string"
        },
        {
          "internalType": "string",
          "name": "description",
          "type": "string"
        },
        {
          "internalType": "uint256",
          "name": "projectGoal",
          "type": "uint256"
        }
      ],
      "name": "createProject",
      "outputs": [],
      "stateMutability": "payable",
      "type": "function"
    },
    {
      "inputs": [],
      "name": "fetchAllProjects",
      "outputs": [
        {
          "components": [
            {
              "internalType": "uint256",
              "name": "projectID",
              "type": "uint256"
            },
            {
              "internalType": "uint256",
              "name": "projectGoal",
              "type": "uint256"
            },
            {
              "internalType": "uint256",
              "name": "balance",
              "type": "uint256"
            },
            {
              "internalType": "uint256",
              "name": "funders",
              "type": "uint256"
            },
            {
              "internalType": "string",
              "name": "title",
              "type": "string"
            },
            {
              "internalType": "string",
              "name": "description",
              "type": "string"
            },
            {
              "internalType": "address payable",
              "name": "owner",
              "type": "address"
            },
            {
              "internalType": "bool",
              "name": "isComplete",
              "type": "bool"
            },
            {
              "internalType": "bool",
              "name": "isClosed",
              "type": "bool"
            }
          ],
          "internalType": "struct Crowdfunding.Project[]",
          "name": "",
          "type": "tuple[]"
        }
      ],
      "stateMutability": "view",
      "type": "function"
    },
    {
      "inputs": [
        {
          "internalType": "uint256",
          "name": "projectId",
          "type": "uint256"
        }
      ],
      "name": "fetchProjectByID",
      "outputs": [
        {
          "components": [
            {
              "internalType": "uint256",
              "name": "projectID",
              "type": "uint256"
            },
            {
              "internalType": "uint256",
              "name": "projectGoal",
              "type": "uint256"
            },
            {
              "internalType": "uint256",
              "name": "balance",
              "type": "uint256"
            },
            {
              "internalType": "uint256",
              "name": "funders",
              "type": "uint256"
            },
            {
              "internalType": "string",
              "name": "title",
              "type": "string"
            },
            {
              "internalType": "string",
              "name": "description",
              "type": "string"
            },
            {
              "internalType": "address payable",
              "name": "owner",
              "type": "address"
            },
            {
              "internalType": "bool",
              "name": "isComplete",
              "type": "bool"
            },
            {
              "internalType": "bool",
              "name": "isClosed",
              "type": "bool"
            }
          ],
          "internalType": "struct Crowdfunding.Project",
          "name": "",
          "type": "tuple"
        }
      ],
      "stateMutability": "view",
      "type": "function"
    },
    {
      "inputs": [
        {
          "internalType": "uint256",
          "name": "projectID",
          "type": "uint256"
        }
      ],
      "name": "fundProject",
      "outputs": [
        {
          "internalType": "bool",
          "name": "",
          "type": "bool"
        }
      ],
      "stateMutability": "payable",
      "type": "function"
    },
    {
      "inputs": [],
      "name": "getBalance",
      "outputs": [
        {
          "internalType": "uint256",
          "name": "",
          "type": "uint256"
        }
      ],
      "stateMutability": "view",
      "type": "function"
    },
    {
      "inputs": [],
      "name": "getListingFee",
      "outputs": [
        {
          "internalType": "uint256",
          "name": "",
          "type": "uint256"
        }
      ],
      "stateMutability": "view",
      "type": "function"
    },
    {
      "inputs": [],
      "name": "getTokenContractAddress",
      "outputs": [
        {
          "internalType": "address",
          "name": "tokenContract",
          "type": "address"
        }
      ],
      "stateMutability": "view",
      "type": "function"
    },
    {
      "inputs": [],
      "name": "getUserCrowdTokenBalance",
      "outputs": [
        {
          "internalType": "uint256",
          "name": "balance",
          "type": "uint256"
        }
      ],
      "stateMutability": "view",
      "type": "function"
    },
    {
      "inputs": [
        {
          "internalType": "uint256",
          "name": "projectID",
          "type": "uint256"
        }
      ],
      "name": "markProjectComplete",
      "outputs": [
        {
          "internalType": "bool",
          "name": "",
          "type": "bool"
        }
      ],
      "stateMutability": "nonpayable",
      "type": "function"
    },
    {
      "inputs": [],
      "name": "owner",
      "outputs": [
        {
          "internalType": "address",
          "name": "",
          "type": "address"
        }
      ],
      "stateMutability": "view",
      "type": "function"
    },
    {
      "inputs": [],
      "name": "renounceOwnership",
      "outputs": [],
      "stateMutability": "nonpayable",
      "type": "function"
    },
    {
      "inputs": [
        {
          "internalType": "address",
          "name": "newOwner",
          "type": "address"
        }
      ],
      "name": "transferOwnership",
      "outputs": [],
      "stateMutability": "nonpayable",
      "type": "function"
    }
  ],
  "bytecode": "0x60806040526658d15e176280006005556200002f62000023620000a860201b60201c565b620000b060201b60201c565b60018081905550604051620000449062000174565b604051809103906000f08015801562000061573d6000803e3d6000fd5b50600460006101000a81548173ffffffffffffffffffffffffffffffffffffffff021916908373ffffffffffffffffffffffffffffffffffffffff16021790555062000182565b600033905090565b60008060009054906101000a900473ffffffffffffffffffffffffffffffffffffffff169050816000806101000a81548173ffffffffffffffffffffffffffffffffffffffff021916908373ffffffffffffffffffffffffffffffffffffffff1602179055508173ffffffffffffffffffffffffffffffffffffffff168173ffffffffffffffffffffffffffffffffffffffff167f8be0079c531659141344cd1fd0a4f28419497f9722a3daafe3b4186f6b6457e060405160405180910390a35050565b611fdf8062002a9583390190565b61290380620001926000396000f3fe6080604052600436106100c25760003560e01c80636c563abe1161007f578063b8fe6abe11610059578063b8fe6abe14610250578063bba94ff81461027b578063c010d426146102b8578063f2fde38b146102e3576100c2565b80636c563abe146101de578063715018a61461020e5780638da5cb5b14610225576100c2565b80630560f543146100c757806312065fe0146100f257806322e455841461011d57806323c55448146101485780635445622c14610164578063546d23cc146101a1575b600080fd5b3480156100d357600080fd5b506100dc61030c565b6040516100e991906121b8565b60405180910390f35b3480156100fe57600080fd5b50610107610353565b60405161011491906121b8565b60405180910390f35b34801561012957600080fd5b5061013261035b565b60405161013f9190611f9e565b60405180910390f35b610162600480360381019061015d9190611a64565b610385565b005b34801561017057600080fd5b5061018b60048036038101906101869190611ae3565b6105d0565b604051610198919061203b565b60405180910390f35b3480156101ad57600080fd5b506101c860048036038101906101c39190611ae3565b61081b565b6040516101d59190612196565b60405180910390f35b6101f860048036038101906101f39190611ae3565b610a21565b604051610205919061203b565b60405180910390f35b34801561021a57600080fd5b50610223610b72565b005b34801561023157600080fd5b5061023a610bfa565b6040516102479190611f9e565b60405180910390f35b34801561025c57600080fd5b50610265610c23565b60405161027291906121b8565b60405180910390f35b34801561028757600080fd5b506102a2600480360381019061029d9190611ae3565b610c2d565b6040516102af919061203b565b60405180910390f35b3480156102c457600080fd5b506102cd610e7c565b6040516102da9190612019565b60405180910390f35b3480156102ef57600080fd5b5061030a60048036038101906103059190611a12565b611241565b005b6000600860003373ffffffffffffffffffffffffffffffffffffffff1673ffffffffffffffffffffffffffffffffffffffff16815260200190815260200160002054905090565b600047905090565b6000600460009054906101000a900473ffffffffffffffffffffffffffffffffffffffff16905090565b60055434146103c9576040517f08c379a00000000000000000000000000000000000000000000000000000000081526004016103c090612056565b60405180910390fd5b6103d36002611339565b60006103df600261134f565b905080600660003373ffffffffffffffffffffffffffffffffffffffff1673ffffffffffffffffffffffffffffffffffffffff1681526020019081526020016000208190555060405180610120016040528082815260200183815260200160008152602001600081526020018581526020018481526020013373ffffffffffffffffffffffffffffffffffffffff16815260200160001515815260200160001515815250600760008381526020019081526020016000206000820151816000015560208201518160010155604082015181600201556060820151816003015560808201518160040190805190602001906104da92919061184d565b5060a08201518160050190805190602001906104f792919061184d565b5060c08201518160060160006101000a81548173ffffffffffffffffffffffffffffffffffffffff021916908373ffffffffffffffffffffffffffffffffffffffff16021790555060e08201518160060160146101000a81548160ff0219169083151502179055506101008201518160060160156101000a81548160ff0219169083151502179055509050507fe22df411ee42c0db265039da2dc79760d3b41e5a2e0587ee488b0fce87d15c4d818360008787336000806040516105c298979695949392919061220a565b60405180910390a150505050565b60006105da61135d565b73ffffffffffffffffffffffffffffffffffffffff166105f8610bfa565b73ffffffffffffffffffffffffffffffffffffffff161461064e576040517f08c379a000000000000000000000000000000000000000000000000000000000815260040161064590612116565b60405180910390fd5b60026001541415610694576040517f08c379a000000000000000000000000000000000000000000000000000000000815260040161068b90612176565b60405180910390fd5b60026001819055506000600760008481526020019081526020016000209050600047116106f6576040517f08c379a00000000000000000000000000000000000000000000000000000000081526004016106ed906120f6565b60405180910390fd5b600081600201541161073d576040517f08c379a0000000000000000000000000000000000000000000000000000000008152600401610734906120b6565b60405180910390fd5b8060060160159054906101000a900460ff1615801561076b57508060060160149054906101000a900460ff16155b61077457600080fd5b6000816002018190555060018160060160156101000a81548160ff0219169083151502179055508060060160009054906101000a900473ffffffffffffffffffffffffffffffffffffffff1673ffffffffffffffffffffffffffffffffffffffff166108fc82600201549081150290604051600060405180830381858888f19350505050158015610809573d6000803e3d6000fd5b50600191505060018081905550919050565b6108236118d3565b60076000838152602001908152602001600020604051806101200160405290816000820154815260200160018201548152602001600282015481526020016003820154815260200160048201805461087a906124c0565b80601f01602080910402602001604051908101604052809291908181526020018280546108a6906124c0565b80156108f35780601f106108c8576101008083540402835291602001916108f3565b820191906000526020600020905b8154815290600101906020018083116108d657829003601f168201915b5050505050815260200160058201805461090c906124c0565b80601f0160208091040260200160405190810160405280929190818152602001828054610938906124c0565b80156109855780601f1061095a57610100808354040283529160200191610985565b820191906000526020600020905b81548152906001019060200180831161096857829003601f168201915b505050505081526020016006820160009054906101000a900473ffffffffffffffffffffffffffffffffffffffff1673ffffffffffffffffffffffffffffffffffffffff1673ffffffffffffffffffffffffffffffffffffffff1681526020016006820160149054906101000a900460ff161515151581526020016006820160159054906101000a900460ff1615151515815250509050919050565b6000803411610a65576040517f08c379a0000000000000000000000000000000000000000000000000000000008152600401610a5c90612136565b60405180910390fd5b6007600083815260200190815260200160002060060160159054906101000a900460ff16158015610ab757506007600083815260200190815260200160002060060160149054906101000a900460ff16155b610ac057600080fd5b34600760008481526020019081526020016000206002016000828254610ae69190612352565b925050819055506001600760008481526020019081526020016000206003016000828254610b149190612352565b92505081905550610b2d33670de0b6b3a7640000611365565b507f26aac1e3160af10ef601ed7c1de8d440bfc3c39184731c5bb124ee8464e9fb6d823433604051610b61939291906121d3565b60405180910390a160019050919050565b610b7a61135d565b73ffffffffffffffffffffffffffffffffffffffff16610b98610bfa565b73ffffffffffffffffffffffffffffffffffffffff1614610bee576040517f08c379a0000000000000000000000000000000000000000000000000000000008152600401610be590612116565b60405180910390fd5b610bf86000611789565b565b60008060009054906101000a900473ffffffffffffffffffffffffffffffffffffffff16905090565b6000600554905090565b600060026001541415610c75576040517f08c379a0000000000000000000000000000000000000000000000000000000008152600401610c6c90612176565b60405180910390fd5b6002600181905550610c8561135d565b73ffffffffffffffffffffffffffffffffffffffff16610ca3610bfa565b73ffffffffffffffffffffffffffffffffffffffff1614610cf9576040517f08c379a0000000000000000000000000000000000000000000000000000000008152600401610cf090612116565b60405180910390fd5b600060076000848152602001908152602001600020905060004711610d53576040517f08c379a0000000000000000000000000000000000000000000000000000000008152600401610d4a906120f6565b60405180910390fd5b806002015481600101541015610d9e576040517f08c379a0000000000000000000000000000000000000000000000000000000008152600401610d9590612156565b60405180910390fd5b8060060160159054906101000a900460ff16158015610dcc57508060060160149054906101000a900460ff16155b610dd557600080fd5b6000816002018190555060018160060160146101000a81548160ff0219169083151502179055508060060160009054906101000a900473ffffffffffffffffffffffffffffffffffffffff1673ffffffffffffffffffffffffffffffffffffffff166108fc82600201549081150290604051600060405180830381858888f19350505050158015610e6a573d6000803e3d6000fd5b50600191505060018081905550919050565b60606000610e8a600261134f565b90506000610e98600361134f565b82610ea391906123a8565b90506000808267ffffffffffffffff811115610ee8577f4e487b7100000000000000000000000000000000000000000000000000000000600052604160045260246000fd5b604051908082528060200260200182016040528015610f2157816020015b610f0e6118d3565b815260200190600190039081610f065790505b50905060005b84811015611236576000151560076000600184610f449190612352565b815260200190815260200160002060060160149054906101000a900460ff161515148015610fa557506000151560076000600184610f829190612352565b815260200190815260200160002060060160159054906101000a900460ff161515145b1561122357600060076000600184610fbd9190612352565b8152602001908152602001600020600001549050600060076000838152602001908152602001600020905080604051806101200160405290816000820154815260200160018201548152602001600282015481526020016003820154815260200160048201805461102d906124c0565b80601f0160208091040260200160405190810160405280929190818152602001828054611059906124c0565b80156110a65780601f1061107b576101008083540402835291602001916110a6565b820191906000526020600020905b81548152906001019060200180831161108957829003601f168201915b505050505081526020016005820180546110bf906124c0565b80601f01602080910402602001604051908101604052809291908181526020018280546110eb906124c0565b80156111385780601f1061110d57610100808354040283529160200191611138565b820191906000526020600020905b81548152906001019060200180831161111b57829003601f168201915b505050505081526020016006820160009054906101000a900473ffffffffffffffffffffffffffffffffffffffff1673ffffffffffffffffffffffffffffffffffffffff1673ffffffffffffffffffffffffffffffffffffffff1681526020016006820160149054906101000a900460ff161515151581526020016006820160159054906101000a900460ff161515151581525050848681518110611206577f4e487b7100000000000000000000000000000000000000000000000000000000600052603260045260246000fd5b602002602001018190525060018561121e9190612352565b945050505b808061122e90612523565b915050610f27565b508094505050505090565b61124961135d565b73ffffffffffffffffffffffffffffffffffffffff16611267610bfa565b73ffffffffffffffffffffffffffffffffffffffff16146112bd576040517f08c379a00000000000000000000000000000000000000000000000000000000081526004016112b490612116565b60405180910390fd5b600073ffffffffffffffffffffffffffffffffffffffff168173ffffffffffffffffffffffffffffffffffffffff16141561132d576040517f08c379a000000000000000000000000000000000000000000000000000000000815260040161132490612076565b60405180910390fd5b61133681611789565b50565b6001816000016000828254019250508190555050565b600081600001549050919050565b600033905090565b6000600260015414156113ad576040517f08c379a00000000000000000000000000000000000000000000000000000000081526004016113a490612176565b60405180910390fd5b60026001819055506113bd61135d565b73ffffffffffffffffffffffffffffffffffffffff166113db610bfa565b73ffffffffffffffffffffffffffffffffffffffff1614611431576040517f08c379a000000000000000000000000000000000000000000000000000000000815260040161142890612116565b60405180910390fd5b81600460009054906101000a900473ffffffffffffffffffffffffffffffffffffffff1673ffffffffffffffffffffffffffffffffffffffff166370a08231306040518263ffffffff1660e01b815260040161148d9190611f9e565b60206040518083038186803b1580156114a557600080fd5b505afa1580156114b9573d6000803e3d6000fd5b505050506040513d601f19601f820116820180604052508101906114dd9190611b0c565b101561151e576040517f08c379a0000000000000000000000000000000000000000000000000000000008152600401611515906120d6565b60405180910390fd5b600860008473ffffffffffffffffffffffffffffffffffffffff1673ffffffffffffffffffffffffffffffffffffffff1681526020019081526020016000205482600860008673ffffffffffffffffffffffffffffffffffffffff1673ffffffffffffffffffffffffffffffffffffffff168152602001908152602001600020546115a99190612352565b10156115b457600080fd5b81600860008573ffffffffffffffffffffffffffffffffffffffff1673ffffffffffffffffffffffffffffffffffffffff16815260200190815260200160002060008282546116039190612352565b925050819055506000600460009054906101000a900473ffffffffffffffffffffffffffffffffffffffff1673ffffffffffffffffffffffffffffffffffffffff1663a9059cbb85856040518363ffffffff1660e01b8152600401611669929190611fb9565b602060405180830381600087803b15801561168357600080fd5b505af1158015611697573d6000803e3d6000fd5b505050506040513d601f19601f820116820180604052508101906116bb9190611a3b565b9050806116fd576040517f08c379a00000000000000000000000000000000000000000000000000000000081526004016116f490612096565b60405180910390fd5b7f75bd899296c7a5c73f4993401b9a11685de43d02d4d70397f45cf1357ddc47348484600860008873ffffffffffffffffffffffffffffffffffffffff1673ffffffffffffffffffffffffffffffffffffffff1681526020019081526020016000205460405161176f93929190611fe2565b60405180910390a160019150506001808190555092915050565b60008060009054906101000a900473ffffffffffffffffffffffffffffffffffffffff169050816000806101000a81548173ffffffffffffffffffffffffffffffffffffffff021916908373ffffffffffffffffffffffffffffffffffffffff1602179055508173ffffffffffffffffffffffffffffffffffffffff168173ffffffffffffffffffffffffffffffffffffffff167f8be0079c531659141344cd1fd0a4f28419497f9722a3daafe3b4186f6b6457e060405160405180910390a35050565b828054611859906124c0565b90600052602060002090601f01602090048101928261187b57600085556118c2565b82601f1061189457805160ff19168380011785556118c2565b828001600101855582156118c2579182015b828111156118c15782518255916020019190600101906118a6565b5b5090506118cf9190611939565b5090565b604051806101200160405280600081526020016000815260200160008152602001600081526020016060815260200160608152602001600073ffffffffffffffffffffffffffffffffffffffff1681526020016000151581526020016000151581525090565b5b8082111561195257600081600090555060010161193a565b5090565b6000611969611964846122bb565b612296565b90508281526020810184848401111561198157600080fd5b61198c84828561247e565b509392505050565b6000813590506119a381612888565b92915050565b6000815190506119b88161289f565b92915050565b600082601f8301126119cf57600080fd5b81356119df848260208601611956565b91505092915050565b6000813590506119f7816128b6565b92915050565b600081519050611a0c816128b6565b92915050565b600060208284031215611a2457600080fd5b6000611a3284828501611994565b91505092915050565b600060208284031215611a4d57600080fd5b6000611a5b848285016119a9565b91505092915050565b600080600060608486031215611a7957600080fd5b600084013567ffffffffffffffff811115611a9357600080fd5b611a9f868287016119be565b935050602084013567ffffffffffffffff811115611abc57600080fd5b611ac8868287016119be565b9250506040611ad9868287016119e8565b9150509250925092565b600060208284031215611af557600080fd5b6000611b03848285016119e8565b91505092915050565b600060208284031215611b1e57600080fd5b6000611b2c848285016119fd565b91505092915050565b6000611b418383611de8565b905092915050565b611b5281612436565b82525050565b611b61816123ee565b82525050565b611b70816123dc565b82525050565b6000611b81826122fc565b611b8b818561231f565b935083602082028501611b9d856122ec565b8060005b85811015611bd95784840389528151611bba8582611b35565b9450611bc583612312565b925060208a01995050600181019050611ba1565b50829750879550505050505092915050565b611bf481612400565b82525050565b611c0381612400565b82525050565b611c1281612448565b82525050565b6000611c2382612307565b611c2d8185612330565b9350611c3d81856020860161248d565b611c46816125f9565b840191505092915050565b6000611c5c82612307565b611c668185612341565b9350611c7681856020860161248d565b611c7f816125f9565b840191505092915050565b6000611c97602883612341565b9150611ca28261260a565b604082019050919050565b6000611cba602683612341565b9150611cc582612659565b604082019050919050565b6000611cdd601883612341565b9150611ce8826126a8565b602082019050919050565b6000611d00602283612341565b9150611d0b826126d1565b604082019050919050565b6000611d23602383612341565b9150611d2e82612720565b604082019050919050565b6000611d46601e83612341565b9150611d518261276f565b602082019050919050565b6000611d69602083612341565b9150611d7482612798565b602082019050919050565b6000611d8c602983612341565b9150611d97826127c1565b604082019050919050565b6000611daf602983612341565b9150611dba82612810565b604082019050919050565b6000611dd2601f83612341565b9150611ddd8261285f565b602082019050919050565b600061012083016000830151611e016000860182611f80565b506020830151611e146020860182611f80565b506040830151611e276040860182611f80565b506060830151611e3a6060860182611f80565b5060808301518482036080860152611e528282611c18565b91505060a083015184820360a0860152611e6c8282611c18565b91505060c0830151611e8160c0860182611b58565b5060e0830151611e9460e0860182611beb565b50610100830151611ea9610100860182611beb565b508091505092915050565b600061012083016000830151611ecd6000860182611f80565b506020830151611ee06020860182611f80565b506040830151611ef36040860182611f80565b506060830151611f066060860182611f80565b5060808301518482036080860152611f1e8282611c18565b91505060a083015184820360a0860152611f388282611c18565b91505060c0830151611f4d60c0860182611b58565b5060e0830151611f6060e0860182611beb565b50610100830151611f75610100860182611beb565b508091505092915050565b611f898161242c565b82525050565b611f988161242c565b82525050565b6000602082019050611fb36000830184611b67565b92915050565b6000604082019050611fce6000830185611b67565b611fdb6020830184611f8f565b9392505050565b6000606082019050611ff76000830186611b67565b6120046020830185611f8f565b6120116040830184611f8f565b949350505050565b600060208201905081810360008301526120338184611b76565b905092915050565b60006020820190506120506000830184611bfa565b92915050565b6000602082019050818103600083015261206f81611c8a565b9050919050565b6000602082019050818103600083015261208f81611cad565b9050919050565b600060208201905081810360008301526120af81611cd0565b9050919050565b600060208201905081810360008301526120cf81611cf3565b9050919050565b600060208201905081810360008301526120ef81611d16565b9050919050565b6000602082019050818103600083015261210f81611d39565b9050919050565b6000602082019050818103600083015261212f81611d5c565b9050919050565b6000602082019050818103600083015261214f81611d7f565b9050919050565b6000602082019050818103600083015261216f81611da2565b9050919050565b6000602082019050818103600083015261218f81611dc5565b9050919050565b600060208201905081810360008301526121b08184611eb4565b905092915050565b60006020820190506121cd6000830184611f8f565b92915050565b60006060820190506121e86000830186611f8f565b6121f56020830185611f8f565b6122026040830184611b67565b949350505050565b600061010082019050612220600083018b611f8f565b61222d602083018a611f8f565b61223a6040830189611c09565b818103606083015261224c8188611c51565b905081810360808301526122608187611c51565b905061226f60a0830186611b49565b61227c60c0830185611bfa565b61228960e0830184611bfa565b9998505050505050505050565b60006122a06122b1565b90506122ac82826124f2565b919050565b6000604051905090565b600067ffffffffffffffff8211156122d6576122d56125ca565b5b6122df826125f9565b9050602081019050919050565b6000819050602082019050919050565b600081519050919050565b600081519050919050565b6000602082019050919050565b600082825260208201905092915050565b600082825260208201905092915050565b600082825260208201905092915050565b600061235d8261242c565b91506123688361242c565b9250827fffffffffffffffffffffffffffffffffffffffffffffffffffffffffffffffff0382111561239d5761239c61256c565b5b828201905092915050565b60006123b38261242c565b91506123be8361242c565b9250828210156123d1576123d061256c565b5b828203905092915050565b60006123e78261240c565b9050919050565b60006123f98261240c565b9050919050565b60008115159050919050565b600073ffffffffffffffffffffffffffffffffffffffff82169050919050565b6000819050919050565b60006124418261245a565b9050919050565b60006124538261242c565b9050919050565b60006124658261246c565b9050919050565b60006124778261240c565b9050919050565b82818337600083830152505050565b60005b838110156124ab578082015181840152602081019050612490565b838111156124ba576000848401525b50505050565b600060028204905060018216806124d857607f821691505b602082108114156124ec576124eb61259b565b5b50919050565b6124fb826125f9565b810181811067ffffffffffffffff8211171561251a576125196125ca565b5b80604052505050565b600061252e8261242c565b91507fffffffffffffffffffffffffffffffffffffffffffffffffffffffffffffffff8214156125615761256061256c565b5b600182019050919050565b7f4e487b7100000000000000000000000000000000000000000000000000000000600052601160045260246000fd5b7f4e487b7100000000000000000000000000000000000000000000000000000000600052602260045260246000fd5b7f4e487b7100000000000000000000000000000000000000000000000000000000600052604160045260246000fd5b6000601f19601f8301169050919050565b7f416d6f756e742070726f7669646564206e6f7420657175616c20746f206c697360008201527f74696e6720666565000000000000000000000000000000000000000000000000602082015250565b7f4f776e61626c653a206e6577206f776e657220697320746865207a65726f206160008201527f6464726573730000000000000000000000000000000000000000000000000000602082015250565b7f4661696c656420746f207472616e7366657220746f6b656e0000000000000000600082015250565b7f4e6f7420656e6f7567682066756e647320666f722074686973207472616e736660008201527f6572000000000000000000000000000000000000000000000000000000000000602082015250565b7f4e6f7420656e6f75676820746f6b656e7320666f722074686973207472616e7360008201527f6665720000000000000000000000000000000000000000000000000000000000602082015250565b7f496e73756666696369656e742066756e647320696e20636f6e74726163740000600082015250565b7f4f776e61626c653a2063616c6c6572206973206e6f7420746865206f776e6572600082015250565b7f596f75206d7573742066756e6420616e20616d6f756e7420677265617465722060008201527f7468616e207a65726f0000000000000000000000000000000000000000000000602082015250565b7f50726f6a6563742066756e64696e6720676f616c206861736e2774206265656e60008201527f20726561636865642e0000000000000000000000000000000000000000000000602082015250565b7f5265656e7472616e637947756172643a207265656e7472616e742063616c6c00600082015250565b612891816123dc565b811461289c57600080fd5b50565b6128a881612400565b81146128b357600080fd5b50565b6128bf8161242c565b81146128ca57600080fd5b5056fea26469706673582212209e5d7ce391e123387e00fc5bcd2b4215394c9ead93182136ddcf254a061955d764736f6c6343000804003360806040523480156200001157600080fd5b506040518060400160405280600b81526020017f43524f574420544f4b454e0000000000000000000000000000000000000000008152506040518060400160405280600381526020017f43544b000000000000000000000000000000000000000000000000000000000081525081600390805190602001906200009692919062000344565b508060049080519060200190620000af92919062000344565b505050620000d2620000c6620000f360201b60201c565b620000fb60201b60201c565b620000ed33683635c9adc5dea00000620001c160201b60201c565b620005a0565b600033905090565b6000600560009054906101000a900473ffffffffffffffffffffffffffffffffffffffff16905081600560006101000a81548173ffffffffffffffffffffffffffffffffffffffff021916908373ffffffffffffffffffffffffffffffffffffffff1602179055508173ffffffffffffffffffffffffffffffffffffffff168173ffffffffffffffffffffffffffffffffffffffff167f8be0079c531659141344cd1fd0a4f28419497f9722a3daafe3b4186f6b6457e060405160405180910390a35050565b600073ffffffffffffffffffffffffffffffffffffffff168273ffffffffffffffffffffffffffffffffffffffff16141562000234576040517f08c379a00000000000000000000000000000000000000000000000000000000081526004016200022b906200042c565b60405180910390fd5b62000248600083836200033a60201b60201c565b80600260008282546200025c91906200047c565b92505081905550806000808473ffffffffffffffffffffffffffffffffffffffff1673ffffffffffffffffffffffffffffffffffffffff1681526020019081526020016000206000828254620002b391906200047c565b925050819055508173ffffffffffffffffffffffffffffffffffffffff16600073ffffffffffffffffffffffffffffffffffffffff167fddf252ad1be2c89b69c2b068fc378daa952ba7f163c4a11628f55a4df523b3ef836040516200031a91906200044e565b60405180910390a362000336600083836200033f60201b60201c565b5050565b505050565b505050565b8280546200035290620004e3565b90600052602060002090601f016020900481019282620003765760008555620003c2565b82601f106200039157805160ff1916838001178555620003c2565b82800160010185558215620003c2579182015b82811115620003c1578251825591602001919060010190620003a4565b5b509050620003d19190620003d5565b5090565b5b80821115620003f0576000816000905550600101620003d6565b5090565b600062000403601f836200046b565b9150620004108262000577565b602082019050919050565b6200042681620004d9565b82525050565b600060208201905081810360008301526200044781620003f4565b9050919050565b60006020820190506200046560008301846200041b565b92915050565b600082825260208201905092915050565b60006200048982620004d9565b91506200049683620004d9565b9250827fffffffffffffffffffffffffffffffffffffffffffffffffffffffffffffffff03821115620004ce57620004cd62000519565b5b828201905092915050565b6000819050919050565b60006002820490506001821680620004fc57607f821691505b6020821081141562000513576200051262000548565b5b50919050565b7f4e487b7100000000000000000000000000000000000000000000000000000000600052601160045260246000fd5b7f4e487b7100000000000000000000000000000000000000000000000000000000600052602260045260246000fd5b7f45524332303a206d696e7420746f20746865207a65726f206164647265737300600082015250565b611a2f80620005b06000396000f3fe608060405234801561001057600080fd5b50600436106100f55760003560e01c806370a0823111610097578063a457c2d711610066578063a457c2d714610276578063a9059cbb146102a6578063dd62ed3e146102d6578063f2fde38b14610306576100f5565b806370a0823114610200578063715018a6146102305780638da5cb5b1461023a57806395d89b4114610258576100f5565b806323b872dd116100d357806323b872dd14610166578063313ce5671461019657806339509351146101b4578063449a52f8146101e4576100f5565b806306fdde03146100fa578063095ea7b31461011857806318160ddd14610148575b600080fd5b610102610322565b60405161010f91906113ce565b60405180910390f35b610132600480360381019061012d9190611189565b6103b4565b60405161013f91906113b3565b60405180910390f35b6101506103d2565b60405161015d9190611530565b60405180910390f35b610180600480360381019061017b919061113a565b6103dc565b60405161018d91906113b3565b60405180910390f35b61019e6104d4565b6040516101ab919061154b565b60405180910390f35b6101ce60048036038101906101c99190611189565b6104dd565b6040516101db91906113b3565b60405180910390f35b6101fe60048036038101906101f99190611189565b610589565b005b61021a600480360381019061021591906110d5565b610613565b6040516102279190611530565b60405180910390f35b61023861065b565b005b6102426106e3565b60405161024f9190611398565b60405180910390f35b61026061070d565b60405161026d91906113ce565b60405180910390f35b610290600480360381019061028b9190611189565b61079f565b60405161029d91906113b3565b60405180910390f35b6102c060048036038101906102bb9190611189565b61088a565b6040516102cd91906113b3565b60405180910390f35b6102f060048036038101906102eb91906110fe565b6108a8565b6040516102fd9190611530565b60405180910390f35b610320600480360381019061031b91906110d5565b61092f565b005b60606003805461033190611660565b80601f016020809104026020016040519081016040528092919081815260200182805461035d90611660565b80156103aa5780601f1061037f576101008083540402835291602001916103aa565b820191906000526020600020905b81548152906001019060200180831161038d57829003601f168201915b5050505050905090565b60006103c86103c1610a27565b8484610a2f565b6001905092915050565b6000600254905090565b60006103e9848484610bfa565b6000600160008673ffffffffffffffffffffffffffffffffffffffff1673ffffffffffffffffffffffffffffffffffffffff1681526020019081526020016000206000610434610a27565b73ffffffffffffffffffffffffffffffffffffffff1673ffffffffffffffffffffffffffffffffffffffff168152602001908152602001600020549050828110156104b4576040517f08c379a00000000000000000000000000000000000000000000000000000000081526004016104ab90611470565b60405180910390fd5b6104c8856104c0610a27565b858403610a2f565b60019150509392505050565b60006012905090565b600061057f6104ea610a27565b8484600160006104f8610a27565b73ffffffffffffffffffffffffffffffffffffffff1673ffffffffffffffffffffffffffffffffffffffff16815260200190815260200160002060008873ffffffffffffffffffffffffffffffffffffffff1673ffffffffffffffffffffffffffffffffffffffff1681526020019081526020016000205461057a9190611582565b610a2f565b6001905092915050565b610591610a27565b73ffffffffffffffffffffffffffffffffffffffff166105af6106e3565b73ffffffffffffffffffffffffffffffffffffffff1614610605576040517f08c379a00000000000000000000000000000000000000000000000000000000081526004016105fc90611490565b60405180910390fd5b61060f8282610e7b565b5050565b60008060008373ffffffffffffffffffffffffffffffffffffffff1673ffffffffffffffffffffffffffffffffffffffff168152602001908152602001600020549050919050565b610663610a27565b73ffffffffffffffffffffffffffffffffffffffff166106816106e3565b73ffffffffffffffffffffffffffffffffffffffff16146106d7576040517f08c379a00000000000000000000000000000000000000000000000000000000081526004016106ce90611490565b60405180910390fd5b6106e16000610fdb565b565b6000600560009054906101000a900473ffffffffffffffffffffffffffffffffffffffff16905090565b60606004805461071c90611660565b80601f016020809104026020016040519081016040528092919081815260200182805461074890611660565b80156107955780601f1061076a57610100808354040283529160200191610795565b820191906000526020600020905b81548152906001019060200180831161077857829003601f168201915b5050505050905090565b600080600160006107ae610a27565b73ffffffffffffffffffffffffffffffffffffffff1673ffffffffffffffffffffffffffffffffffffffff16815260200190815260200160002060008573ffffffffffffffffffffffffffffffffffffffff1673ffffffffffffffffffffffffffffffffffffffff1681526020019081526020016000205490508281101561086b576040517f08c379a0000000000000000000000000000000000000000000000000000000008152600401610862906114f0565b60405180910390fd5b61087f610876610a27565b85858403610a2f565b600191505092915050565b600061089e610897610a27565b8484610bfa565b6001905092915050565b6000600160008473ffffffffffffffffffffffffffffffffffffffff1673ffffffffffffffffffffffffffffffffffffffff16815260200190815260200160002060008373ffffffffffffffffffffffffffffffffffffffff1673ffffffffffffffffffffffffffffffffffffffff16815260200190815260200160002054905092915050565b610937610a27565b73ffffffffffffffffffffffffffffffffffffffff166109556106e3565b73ffffffffffffffffffffffffffffffffffffffff16146109ab576040517f08c379a00000000000000000000000000000000000000000000000000000000081526004016109a290611490565b60405180910390fd5b600073ffffffffffffffffffffffffffffffffffffffff168173ffffffffffffffffffffffffffffffffffffffff161415610a1b576040517f08c379a0000000000000000000000000000000000000000000000000000000008152600401610a1290611410565b60405180910390fd5b610a2481610fdb565b50565b600033905090565b600073ffffffffffffffffffffffffffffffffffffffff168373ffffffffffffffffffffffffffffffffffffffff161415610a9f576040517f08c379a0000000000000000000000000000000000000000000000000000000008152600401610a96906114d0565b60405180910390fd5b600073ffffffffffffffffffffffffffffffffffffffff168273ffffffffffffffffffffffffffffffffffffffff161415610b0f576040517f08c379a0000000000000000000000000000000000000000000000000000000008152600401610b0690611430565b60405180910390fd5b80600160008573ffffffffffffffffffffffffffffffffffffffff1673ffffffffffffffffffffffffffffffffffffffff16815260200190815260200160002060008473ffffffffffffffffffffffffffffffffffffffff1673ffffffffffffffffffffffffffffffffffffffff168152602001908152602001600020819055508173ffffffffffffffffffffffffffffffffffffffff168373ffffffffffffffffffffffffffffffffffffffff167f8c5be1e5ebec7d5bd14f71427d1e84f3dd0314c0f7b2291e5b200ac8c7c3b92583604051610bed9190611530565b60405180910390a3505050565b600073ffffffffffffffffffffffffffffffffffffffff168373ffffffffffffffffffffffffffffffffffffffff161415610c6a576040517f08c379a0000000000000000000000000000000000000000000000000000000008152600401610c61906114b0565b60405180910390fd5b600073ffffffffffffffffffffffffffffffffffffffff168273ffffffffffffffffffffffffffffffffffffffff161415610cda576040517f08c379a0000000000000000000000000000000000000000000000000000000008152600401610cd1906113f0565b60405180910390fd5b610ce58383836110a1565b60008060008573ffffffffffffffffffffffffffffffffffffffff1673ffffffffffffffffffffffffffffffffffffffff16815260200190815260200160002054905081811015610d6b576040517f08c379a0000000000000000000000000000000000000000000000000000000008152600401610d6290611450565b60405180910390fd5b8181036000808673ffffffffffffffffffffffffffffffffffffffff1673ffffffffffffffffffffffffffffffffffffffff16815260200190815260200160002081905550816000808573ffffffffffffffffffffffffffffffffffffffff1673ffffffffffffffffffffffffffffffffffffffff1681526020019081526020016000206000828254610dfe9190611582565b925050819055508273ffffffffffffffffffffffffffffffffffffffff168473ffffffffffffffffffffffffffffffffffffffff167fddf252ad1be2c89b69c2b068fc378daa952ba7f163c4a11628f55a4df523b3ef84604051610e629190611530565b60405180910390a3610e758484846110a6565b50505050565b600073ffffffffffffffffffffffffffffffffffffffff168273ffffffffffffffffffffffffffffffffffffffff161415610eeb576040517f08c379a0000000000000000000000000000000000000000000000000000000008152600401610ee290611510565b60405180910390fd5b610ef7600083836110a1565b8060026000828254610f099190611582565b92505081905550806000808473ffffffffffffffffffffffffffffffffffffffff1673ffffffffffffffffffffffffffffffffffffffff1681526020019081526020016000206000828254610f5e9190611582565b925050819055508173ffffffffffffffffffffffffffffffffffffffff16600073ffffffffffffffffffffffffffffffffffffffff167fddf252ad1be2c89b69c2b068fc378daa952ba7f163c4a11628f55a4df523b3ef83604051610fc39190611530565b60405180910390a3610fd7600083836110a6565b5050565b6000600560009054906101000a900473ffffffffffffffffffffffffffffffffffffffff16905081600560006101000a81548173ffffffffffffffffffffffffffffffffffffffff021916908373ffffffffffffffffffffffffffffffffffffffff1602179055508173ffffffffffffffffffffffffffffffffffffffff168173ffffffffffffffffffffffffffffffffffffffff167f8be0079c531659141344cd1fd0a4f28419497f9722a3daafe3b4186f6b6457e060405160405180910390a35050565b505050565b505050565b6000813590506110ba816119cb565b92915050565b6000813590506110cf816119e2565b92915050565b6000602082840312156110e757600080fd5b60006110f5848285016110ab565b91505092915050565b6000806040838503121561111157600080fd5b600061111f858286016110ab565b9250506020611130858286016110ab565b9150509250929050565b60008060006060848603121561114f57600080fd5b600061115d868287016110ab565b935050602061116e868287016110ab565b925050604061117f868287016110c0565b9150509250925092565b6000806040838503121561119c57600080fd5b60006111aa858286016110ab565b92505060206111bb858286016110c0565b9150509250929050565b6111ce816115d8565b82525050565b6111dd816115ea565b82525050565b60006111ee82611566565b6111f88185611571565b935061120881856020860161162d565b611211816116f0565b840191505092915050565b6000611229602383611571565b915061123482611701565b604082019050919050565b600061124c602683611571565b915061125782611750565b604082019050919050565b600061126f602283611571565b915061127a8261179f565b604082019050919050565b6000611292602683611571565b915061129d826117ee565b604082019050919050565b60006112b5602883611571565b91506112c08261183d565b604082019050919050565b60006112d8602083611571565b91506112e38261188c565b602082019050919050565b60006112fb602583611571565b9150611306826118b5565b604082019050919050565b600061131e602483611571565b915061132982611904565b604082019050919050565b6000611341602583611571565b915061134c82611953565b604082019050919050565b6000611364601f83611571565b915061136f826119a2565b602082019050919050565b61138381611616565b82525050565b61139281611620565b82525050565b60006020820190506113ad60008301846111c5565b92915050565b60006020820190506113c860008301846111d4565b92915050565b600060208201905081810360008301526113e881846111e3565b905092915050565b600060208201905081810360008301526114098161121c565b9050919050565b600060208201905081810360008301526114298161123f565b9050919050565b6000602082019050818103600083015261144981611262565b9050919050565b6000602082019050818103600083015261146981611285565b9050919050565b60006020820190508181036000830152611489816112a8565b9050919050565b600060208201905081810360008301526114a9816112cb565b9050919050565b600060208201905081810360008301526114c9816112ee565b9050919050565b600060208201905081810360008301526114e981611311565b9050919050565b6000602082019050818103600083015261150981611334565b9050919050565b6000602082019050818103600083015261152981611357565b9050919050565b6000602082019050611545600083018461137a565b92915050565b60006020820190506115606000830184611389565b92915050565b600081519050919050565b600082825260208201905092915050565b600061158d82611616565b915061159883611616565b9250827fffffffffffffffffffffffffffffffffffffffffffffffffffffffffffffffff038211156115cd576115cc611692565b5b828201905092915050565b60006115e3826115f6565b9050919050565b60008115159050919050565b600073ffffffffffffffffffffffffffffffffffffffff82169050919050565b6000819050919050565b600060ff82169050919050565b60005b8381101561164b578082015181840152602081019050611630565b8381111561165a576000848401525b50505050565b6000600282049050600182168061167857607f821691505b6020821081141561168c5761168b6116c1565b5b50919050565b7f4e487b7100000000000000000000000000000000000000000000000000000000600052601160045260246000fd5b7f4e487b7100000000000000000000000000000000000000000000000000000000600052602260045260246000fd5b6000601f19601f8301169050919050565b7f45524332303a207472616e7366657220746f20746865207a65726f206164647260008201527f6573730000000000000000000000000000000000000000000000000000000000602082015250565b7f4f776e61626c653a206e6577206f776e657220697320746865207a65726f206160008201527f6464726573730000000000000000000000000000000000000000000000000000602082015250565b7f45524332303a20617070726f766520746f20746865207a65726f20616464726560008201527f7373000000000000000000000000000000000000000000000000000000000000602082015250565b7f45524332303a207472616e7366657220616d6f756e742065786365656473206260008201527f616c616e63650000000000000000000000000000000000000000000000000000602082015250565b7f45524332303a207472616e7366657220616d6f756e742065786365656473206160008201527f6c6c6f77616e6365000000000000000000000000000000000000000000000000602082015250565b7f4f776e61626c653a2063616c6c6572206973206e6f7420746865206f776e6572600082015250565b7f45524332303a207472616e736665722066726f6d20746865207a65726f20616460008201527f6472657373000000000000000000000000000000000000000000000000000000602082015250565b7f45524332303a20617070726f76652066726f6d20746865207a65726f2061646460008201527f7265737300000000000000000000000000000000000000000000000000000000602082015250565b7f45524332303a2064656372656173656420616c6c6f77616e63652062656c6f7760008201527f207a65726f000000000000000000000000000000000000000000000000000000602082015250565b7f45524332303a206d696e7420746f20746865207a65726f206164647265737300600082015250565b6119d4816115d8565b81146119df57600080fd5b50565b6119eb81611616565b81146119f657600080fd5b5056fea2646970667358221220e0c0ee96c3fd3a6f9885b03f1d7093b5c6080b84a519b8c6ca328493b9f8489464736f6c63430008040033",
  "linkReferences": {},
  "deployedLinkReferences": {}
}